{
  "contractName": "ExampleClient",
  "abi": [
    {
      "inputs": [],
      "payable": false,
      "stateMutability": "nonpayable",
      "type": "constructor"
    },
    {
      "constant": false,
      "inputs": [],
      "name": "delegateManager",
      "outputs": [],
      "payable": false,
      "stateMutability": "nonpayable",
      "type": "function"
    }
  ],
  "bytecode": "0x608060405234801561001057600080fd5b5061005f6040805190810160405280600d81526020017f4578616d706c65436c69656e7400000000000000000000000000000000000000815250306100a4640100000000026401000000009004565b336000806101000a81548173ffffffffffffffffffffffffffffffffffffffff021916908373ffffffffffffffffffffffffffffffffffffffff160217905550610224565b6000826040516020018082805190602001908083835b6020831015156100df57805182526020820191506020810190506020830392506100ba565b6001836020036101000a038019825116818451168082178552505050505050905001915050604051602081830303815290604052805190602001209050731820a4b7618bde71dce8cdc73aab6c95905fad2473ffffffffffffffffffffffffffffffffffffffff166329965a1d3083856040518463ffffffff167c0100000000000000000000000000000000000000000000000000000000028152600401808473ffffffffffffffffffffffffffffffffffffffff1673ffffffffffffffffffffffffffffffffffffffff1681526020018381526020018273ffffffffffffffffffffffffffffffffffffffff1673ffffffffffffffffffffffffffffffffffffffff1681526020019350505050600060405180830381600087803b15801561020757600080fd5b505af115801561021b573d6000803e3d6000fd5b50505050505050565b610250806102336000396000f3fe608060405234801561001057600080fd5b5060043610610048576000357c010000000000000000000000000000000000000000000000000000000090048063388e91041461004d575b600080fd5b610055610057565b005b3373ffffffffffffffffffffffffffffffffffffffff166000809054906101000a900473ffffffffffffffffffffffffffffffffffffffff1673ffffffffffffffffffffffffffffffffffffffff1614151561011b576040517f08c379a000000000000000000000000000000000000000000000000000000000815260040180806020018281038252600d8152602001807f4e6f7420746865206f776e65720000000000000000000000000000000000000081525060200191505060405180910390fd5b61012433610126565b565b731820a4b7618bde71dce8cdc73aab6c95905fad2473ffffffffffffffffffffffffffffffffffffffff16635df8122f30836040518363ffffffff167c0100000000000000000000000000000000000000000000000000000000028152600401808373ffffffffffffffffffffffffffffffffffffffff1673ffffffffffffffffffffffffffffffffffffffff1681526020018273ffffffffffffffffffffffffffffffffffffffff1673ffffffffffffffffffffffffffffffffffffffff16815260200192505050600060405180830381600087803b15801561020957600080fd5b505af115801561021d573d6000803e3d6000fd5b505050505056fea165627a7a723058207eaf3000b939052cba5401217fa638ce1b263c8c25b5016638b50983344c9ebc0029",
  "source": "pragma solidity ^0.5.3;\n\nimport \"./ERC1820Client.sol\";\n\n\ncontract ExampleClient is ERC1820Client {\n\n    address private owner;\n\n    constructor() public {\n        setInterfaceImplementation(\"ExampleClient\", address(this));\n        owner = msg.sender;\n    }\n\n    function delegateManager() public {\n        require(owner == msg.sender, \"Not the owner\");\n        delegateManagement(msg.sender);\n    }\n\n}\n",
  "sourcePath": "/home/go/src/github.com/shapeshed/ERC1820/contracts/ExampleClient.sol",
  "compiler": {
    "name": "solc",
    "version": "0.5.3+commit.10d17f24.Emscripten.clang"
  },
  "schemaVersion": "3.0.16",
  "updatedAt": "2020-03-10T13:32:38.455Z",
  "devdoc": {
    "methods": {}
  },
  "userdoc": {
    "methods": {}
  }
}