{
  "contractName": "ExampleImplementer",
  "abi": [
    {
      "constant": true,
      "inputs": [
        {
          "name": "interfaceHash",
          "type": "bytes32"
        },
        {
          "name": "addr",
          "type": "address"
        }
      ],
      "name": "canImplementInterfaceForAddress",
      "outputs": [
        {
          "name": "",
          "type": "bytes32"
        }
      ],
      "payable": false,
      "stateMutability": "view",
      "type": "function"
    }
  ],
  "bytecode": "0x608060405234801561001057600080fd5b50610126806100206000396000f3fe6080604052348015600f57600080fd5b50600436106045576000357c010000000000000000000000000000000000000000000000000000000090048063249cb3fa14604a575b600080fd5b609360048036036040811015605e57600080fd5b8101908080359060200190929190803573ffffffffffffffffffffffffffffffffffffffff16906020019092919050505060a9565b6040518082815260200191505060405180910390f35b600060405160200180807f455243313832305f4143434550545f4d4147494300000000000000000000000081525060140190506040516020818303038152906040528051906020012090509291505056fea165627a7a72305820b994be1ff6d121b78c80abb38448aa2f2f6f149b7eb47fbecb55c448093113ea0029",
  "source": "pragma solidity ^0.5.3;\n\nimport \"./ERC1820ImplementerInterface.sol\";\n\n\ncontract ExampleImplementer is ERC1820ImplementerInterface {\n    function canImplementInterfaceForAddress(bytes32 interfaceHash, address addr) external view returns(bytes32) {\n        return ERC1820_ACCEPT_MAGIC;\n    }\n}\n",
  "sourcePath": "/home/go/src/github.com/shapeshed/ERC1820/contracts/ExampleImplementer.sol",
  "compiler": {
    "name": "solc",
    "version": "0.5.3+commit.10d17f24.Emscripten.clang"
  },
  "schemaVersion": "3.0.16",
  "updatedAt": "2020-03-10T13:40:43.557Z",
  "devdoc": {
    "methods": {}
  },
  "userdoc": {
    "methods": {}
  }
}